:4000000000400020110000004106000041060000074A08B5136843F020031360054B1A6803F53F5302331A6000F0FEFB00F010FBE8460040FA46004010B5054C237833B9F5
:40004000044B13B10448AFF300800123237010BD48C1FF1F00000000002C0000084B10B51BB108490848AFF300800848036803B910BD074B002BFBD0BDE81040184700BFE2
:40008000000000004CC1FF1F002C0000C8C0FF1F0000000038B50E4B64251C461A7842F001021A7001F0C4F820B9642000F058FF013DF7D101F0BCF830B92378402203F0EC
:4000C000FE032370034B1A7000F012FE002038BD60500040FA4600400346F0B501F110020C7804311C7011F8034C043303F8034C11F8024C03F8024C11F8014C914203F83B
:40010000014CEDD11A4C00F11003042212F0030F13F8041C13F8037C13F8026C13F8015C0AD114F807E0A75D665D655C04EB920191F800118EEA010113F810EC043381EAE5
:400140000E0100F8221013F8131C0132794003F8031C13F8121C2C2A81EA060103F8021C13F8111C81EA050103F8011CCED1F0BD042C0000F0B500010024031913440E1D47
:4001800013F8017B0D787D4001F8015B8E42F7D10434102C3146F0D1F0BDC3095A00134403EBC30383EA4000C0B2704738B51446FFF792FF2246B03004F1100352F8041BA2
:4001C0009A4240F8041BF9D138BD00002DE9F04F80460C4695B005910D920F1D059B0D9AE31A9A4240F236813B1F10AD07F10C062A4618685968083303C2B3421546F7D107
:40020000424621460A20FFF7B5FF09230493627A637B62736279A1466272627863706271A27AA378A270A27BA372A379A271E279A373E378E270E27AE271E27BE373E27215
:400240002246002312F823108448014491F80B1102F823100133042BF4D101329742F0D1424621460498FFF785FF26464FF0000A737814F82A200393B37810460093F378CE
:400280000F920193FFF789FF0690FFF786FF0790FFF783FF02900398FFF77FFF0546FFF77CFF0890FFF779FF0E900098FFF775FF0990FFF772FF0A90FFF76FFF8346019808
:4002C000FFF76BFF0B90FFF768FF0C90FFF765FF069B079A043683EA020E029B0A9A83EA0E0E0E9B85EA0E0E83EA0E0E82EA0E0E8BEA0E0E039A80EA0E0E82EA0E0E009AD2
:4003000082EA0E0E019A82EA0E0E029A04F82AE05540089A0AF1010A5540099A5D4055400C9A8BEA050555400F9A4540009955404D400199BAF1040F85EA0105039906F8BF
:40034000035C82EA0105079A029982EA010E099A83EA0E0E82EA0E0E0A9A82EA0E0E0B9A8BEA0E0E82EA0E0E019A80EA0E0E82EA0E0282EA050206F8022C069A81EA02010D
:40038000089A81EA020183EA01038BEA030B0B9B83EA0B0B0C9B83EA0B0B009B80EA0B0080EA030080EA050006F8010C7FF460AF049B013B13F0FF0304937FF428AF627AD0
:4003C000637B627362796272627863706271A27AA378A270A27BA372A379A271E279A373E378E270E27AE271E27BE373E272002319F8232019490A4492F80B2109F823207C
:400400000133042BF4D109F101094F45EFD1214600204246FFF7AEFE631E08F1AF0104F10F0013F8015F11F8012F984282EA05021A70F6D110AD08F1B00214AE2B4603CBB2
:40044000B342106051601D4602F10802F6D110341037C3E615B0BDE8F08F00BF042C0000F8B572B6644B61221A700622A3F5A0631A705222A3F580731A70604B604A1B78E4
:40048000604EDBB2137040F618025F4B19251A8041F25122002423F8022C33784FF4F07003F0010343EA440400F0CAFE013D04F003041CD0032CF0D1544B4FF480721A80A4
:4004C00007221A70524A002448211470917002221C705C7103F8032C012283F8FC274D4A4D4D1378062643F02003137000E0FEE706FB045300219A881868013402F083F8F0
:40050000072CF5D100221146444C04F1300554F8210005EB420320F0FF06C0B2024405EB4200013303300233984206D013F8037C13F802EC07F806E0F5E701310C29E6D140
:40054000374A137843F002031370137C43F002031374344B344A1C461868596803C254F80A0F1989B83222F8B81C616803C221891C4654F8140F11806168283203C22189F6
:400580001C4654F81E0F11806168D83A03C221891C4611801946254851F8282F02604A68426054F8300F224A616803C253F83A0F2189183222F8181C59681B8903C2138058
:4005C000A2F6466213781B4C43F0080313701A4B02F5AA521B780C32DBB203F007011B0911705370154B44221A70A3F5A653163B0FCB07C42380F8BD004800400F010049DF
:40060000A146004025420040224200400440004006400040E8460040102E00003C2E000003500140A42E0000005100403251004040510040B0430040CF0100497658004043
:4006400008B501F0A9FF03680C2B00D1FEE7FEE780B51148114B0025C0B1A3F1100192C922460439161BB74204D051F8046F42F8046BF7E7114653F8046C8C1AA64202D00F
:4006800041F8045BF9E701381033E5E701F08AFFFFF700FDFEE700BF0100000080300000104A114B10B41A60104A114C1368114843F4007313600023032B98BF54F82320E5
:4006C0004FEA830188BF0C4A0133302B4250F3D10A4B1A780A4B1A700A4B064A10BC1A60FFF7BEBE0004FA050CED00E014ED00E00000000000C0FF1F41060000BC76004044
:40070000C0C0FF1F08ED00E000470023014422B1013A885C0344DBB2F9E71846704770B5C0B06A4620F0FF035C1E03F1FF05D31A14F8016FAC421E55FAD1C3B2D45C8C420B
:4007400008D0D154C0F30721C0F3074000F0B8FB00F00EFC40B070BD01380B284FD8DFE800F0060C12181E24302A363C42480902C1F5FF3101F5E07147E00902C1F5FF317F
:4007800001F2C11144E00902C1F5FF3101F2C51136E00902C1F5FF3101F2C91138E00902C1F5FF3101F5E8712FE00902C1F5FF3101F2D11129E00902C1F5FF3101F5EB7149
:4007C0001EE00902C1F5FF3101F5E97118E00902C1F5FF3101F5EA7112E00902C1F5FF3101F5EC7114E00902C1F5FF3101F5EE710BE00902C1F5FF3101F5F07108E00021D4
:400800000B78487843EA002070470878C0B270470B784A788878000440EA02201843CB7840EA03607047000010B50B4A137803F0C003802B0ED10024147021460220FFF745
:400840008BFF38B121460220FFF786FFBDE81040FFF75ABF10BD00BFFA460040F8B5014605460320FFF778FF294604460420FFF773FF294606460620FFF76EFF01283FD061
:40088000294603200134FFF767FF06EB04260024274601300002864209D910F8013B5A1ED2B2FD2A1C4498BF0127E4B2F3E729460320FFF751FF144B01309E424FEA002035
:4008C0004FEAD00014BFF6084FF48046B04206D200F190431B7801301C44E4B2F6E729460120FFF739FF6442E4B284420AD14FB12802C0F5FF30012100F2D110FFF70FFF4E
:400900000020F8BD0620F8BDC0FF01002DE98048ADF5637D00F0A4FC62B600252E462F46DFF8C883FF2301AA4FF496714CA800F0C7FC0028F6D1BDF80420062A40F25D8149
:400940009DF83031012B40F05881BDF83241E31D934200F25081B3F5967F00F24C814CAB23449B79172B40F04881231D9BB20DF22F122BB1D15C013B084480B29BB2F8E7A7
:400980004CAB1A1951791379404243EA012380B2834240F034819DF831319DF83491A3F131020A2A00F2C880DFE802F00616C63B76C67B8F3B9FBA00002E00F01E81002CE9
:4009C00040F01B812046FFF749FFB0FA80F040098DF834013146E1E0002E00F00E81012C40F00B81B9F1010F00F20781BB4B1B681B68C3F30742914502D1C3F3072303E0F1
:400A00008CBF00234FF480738DF834311B0A8DF835310024FF238DF836318DF837410421BCE0342B12D1002E00F0E780032C40F0E480A9F140033F2B8CBF4FF4907510258F
:400A40002A46002197A801F0DEFD05E0002E00F0D480022C40F2D18097AB033C224658190DF2371101F0C4FDA9F140032C443F2BA4B204D800F02CFA8023102203E04FF485
:400A800080734FF4907294427ED1BDF835519D42C0F0B780012641E0002E00F0AE80002540E7002E00F0A98004EB0509B9F5967F00F3A18097AB22464DA95819002401F0B7
:400AC00097FD1FFA89F5214668E0002C40F09580834A04AB92E803004DAA83E8030082E8030025460126082158E0002E00F08580032C40F08280A9F140033F2BBDF835B187
:400B000008D800F0E5F9BBF17F0F4FEA0B1140F2AC8003E0BBF1FF0F40F2B2800A243CE00020FFF79BFE10B9802388F8003000F0A3FB00F0F7F960E06A4A12684AB35EB31A
:400B4000ADF80A404FF000094DAC04A98DF808300394CDF81090CDF81490069402A89047BDF81410B1F5937F02D3069BA34205D0069B03B929B99DF810400FE00E244946C6
:400B80000CE00E24194609E0002501260324294604E00524114601E00524002101238DF830310A1D0B0A8DF83331ADF806108DF831418DF8321192B200230DF22F102AB135
:400BC000845C013A23449BB292B2F8E75B424DAA9BB253540DF235121B0A53540DF59B7317225A54073196230DF1060289B24CA800F047FB96E60324CFE70424CDE70824B9
:400C0000CBE7B9F13F0F1DD8344B05EB09221B6892B21968C1F30F2311F0FF0F1CBF01339BB29A421DD36FB939464FF4907204A801F0E9FC4FF4907304AAFF21012000F083
:400C4000D9F801272346294697AA484600F0D2F800280CBF00240A24002500F089F9012695E7002501260A2491E710221E48FFF74CFD044664428DF83441012100248DE72E
:400C80004FEA092A0AEB0B014FF4807209020020FFF73BFDB9F13F0F0446EBD80AF1107ADA444FEA4A1A002313F80A0001330444202BE4B2F8D1B9F1010FDBD1BBF1FF0F76
:400CC000D8D100210520FFF747FD201AC4B200210620FFF741FD201AC4B2CBE7CCC0FF1FE82E000064C1FF1F00800040FA46004038B500F035F810B1002000F011F90020F6
:400D0000FFF7ACFD144C0021236800281A68084614BF06250025FFF7F8FC63681B78181A00F0FF00834202D123681B6813B9002000F0F6F8094B1A7802F0C002402A1A46B0
:400D400000D01DB100231370FFF7E0FD80221A70BDE8384000F0E6B8CCC0FF1FFA46004070B500F077F900F015FA08B104243AE000F04AFA0728044610D11C4D2A781B4BDD
:400D8000900703D4012000F0EBF8F7E71A78910704D51B789B0814BF0724002400F01AFA0CBB00F057F900F0F5F90028DED1012000F0D6F907280AD10C4D02210C4800F02E
:400DC0005BF90228094E05D02B789B07F5D54FF0FF3406E033789A0703D4012000F0C0F8F8E700F0F7F9204670BD00BF2247004074C1FF1F41282DE9F04105460E4617463D
:400E000098460AD8C41E3C2C8CBF002401243F2804D8B1F5807F30D806E00124812E28BF0124B8F1100F28D13FB334BB00F0B2F928BB43463A463146284600F03BF90728FD
:400E400034D1DFF8748098F800201B4B12F0020F1F4603D1012000F083F8F4E71A78900706D51B789B080CD002E01A78920719D44FF0FF3400F0AEF91AE0012418E0042481
:400E800016E00E4A314653782846127800F048F907280BD13A78084B9107E6D4012000F05FF8F7E71B789B08E4D0E1E70446E1E72046BDE8F08100BF2247004074C1FF1FD6
:400EC0003F288CBF10234FF48073FFF793BF000008B500F0BDF90F4A137843F008031370137C43F0080313740B4BC8221A700B4A137843F010031370137C43F01003137464
:400F000002F5557213789B06FCD5BDE8084000F0A3B900BFA043004001470040AC43004001BE7047024A137843F0010313707047F646004038B50446084DB4F5004F05D988
:400F4000286800F07DF9A4F50044F6E7034B58686043BDE8384000F073B900BFD4C0FF1F024B1B7A584300F06BB900BFD4C0FF1F08B500F06DF900BF00BF00BF00BF00BF96
:400F800000BF00BF00BF00BF00BF00BF00BF00BF00BF00BF00BF064A13889BB243F0040313801388BFF36F8FBDE8084000F054B900480040054A00F01F00126800F110035E
:400FC00052F8230042F82310704700BF08ED00E000F01F0000F16040490100F56440C9B201707047134B144A1B78DBB20360127843EA0223114A0360127843EA0243104A77
:401000000360127843EA026303600E4B0E4A1B78DBB24360127843EA02230C4A4360127843EA02430A4A4360127843EA02634360704700BF0301004904010049EC46004050
:40104000020100490101004900010049050100490601004908B500F0FBF8064A137843F008031370137C43F008031374BDE8084000F0F2B8A04300402DE9F0410E464B1EB2
:401080000A4FDFF82C80451EC418A5420BD03B78DB0703D40120FFF763FFF8E798F8003005F8013FF1E73046BDE8F081224700402047004070B5184D2C78A60727D5174CA4
:4010C000B6262670D5262670022626702D78AD071FD416462070B51AADB2AB4203D916F8015B2570F7E7B3F5807F01D0072070BD3F28FBD800F5103001EB0021490100236E
:401100005A5C0133D2B2202B2270F9D1EEE7042070BD092070BD00BF224700402047004070B50D4D2C78A60712D50C4CB6262670D8262670052626702D78AD070AD4207072
:40114000080AC9B22070217022702370072070BD042070BD092070BD22470040204700400A4A137899070CD5094BB6211970E12119700E2119701278920704D41870072050
:401180007047042070470920704700BF224700402047004038B500F05BF80C4A147874B901250B4915700B682B400AD00B6823F001030B6000BF00BF00BF556002E00424C7
:4011C00000E01C4600F048F8204638BD68C1FF1F0400084010B500F03BF8094B00215A681970012A08D1074C226842F00102226000BF00BF00BF5960BDE8104000F02CB890
:4012000068C1FF1F04000840074B1B789B0708D5064BB6221A70E0221A700D221A70072070470420704700BF2247004020470040024B1878C0F38000704700BFF1510040EF
:401240000230800803D000BF01380046FCD17047EFF3108072B6704780F31088704700BF08B562B60221002000F05EF9014B01221A7008BD70C1FF1F00F094B9012000F093
:4012800055BA70B503EB83030E4615460146402202205C0000F00CFA022000F0EDF930B92CB10120013CFFF745FEA4B2F4E7022000F0E2F910B12E80002070BD102070BD2E
:4012C0002DE9F84303EB83035C00224B17461A78804689461E46A2B1254600F0BBF930B92DB10120013DFFF725FEADB2F5E700F0B1F9A0B100F0B4F9FFF7C0FF0023337099
:401300000DE000F0ADF950B100F0A4F938B1FFF7B5FF04E054B1FFF70DFE013CA4B2012000F0AAF901284FF00100F3D100F0A4F901280AD14A46402A28BF4022414600F060
:4013400009FA38800020BDE8F88300233B801020BDE8F88370C1FF1FF8B5FFF779FF3C4A01251378022743F001031370137C394C43F001031374384B02F5E3521D700B3275
:4013800003F8947C1378064603F07F0313700020FFF7E6FD2378314A03F0F90323701378284603F0DF03137023782B432370FFF7D7FD2820FFF7D4FD294B38461A7802F086
:4013C0007F021A701A7802F0BF021A7023783B432370FFF7C5FD2378304643F004032370204B00241C705C70FFF736FF07211720FFF7EEFD1C491720FFF7DCFD07211820B4
:40140000FFF7E6FD19491820FFF7D4FD07211520FFF7DEFD16491520FFF7CCFD20460721FFF7D6FD13492046FFF7C4FD28460721FFF7CEFD10492846FFF7BCFD07210C2000
:40144000FFF7C6FDBDE8F8400C490C20FFF7B2BDA5430040944300409D60004012600040F8510040846000400B1C00006D1A0000091C0000AD1B0000D91B0000051E000063
:4014800008B51C4B01221A701B4B18701B48002303701B4803701B4803701B4803701B4803701B4803701B4803701B4B4FF4000018604FF0807018604FF4001018601A6063
:4014C00002221A60154B19B91A7802F0FE0202E01A7842F001021A70114B03221A70802203F8202C0120FFF7ABFE0E4B04221A7008BD00BF08C2FF1F88C1FF1F8EC1FF1F68
:401500008CC1FF1F8DC1FF1F89C1FF1F78C1FF1F8BC1FF1F00C2FF1F00E100E009600040286000401260004070B5074C054623780E461BB9FFF710FF0123237031462846C0
:40154000BDE87040FFF79CBF71C1FF1F0C4B01221A700C4A002313700B4A13700B4A13700B4A13700B4A13700B4A13700B4A13700B4B03221A70802203F8202C704700BF01
:4015800008C2FF1F8EC1FF1F8CC1FF1F8DC1FF1F89C1FF1F78C1FF1F8BC1FF1F00C2FF1F2860004008B5FFF753FE204A137803F07F031370937A03F0FB039372A2F5E3526E
:4015C000033A137803F0FE031370137C03F0FE031374174B1A7842F080021A701A7842F040021A70FFF738FE124B4FF400021A604FF080721A604FF400121A6001221A6081
:4016000002221A6000F09AFF0B4B4FF480521A600A4A002313700A4A13700A4A13700A4A13700A4A13700A4A137008BD08600040F851004080E100E080E200E08CC1FF1F8D
:401640008DC1FF1F89C1FF1F78C1FF1F8BC1FF1F71C1FF1F014B1878704700BF8DC1FF1F044B1A7802F0FF001AB118780022C0B21A7070478CC1FF1F024A0C2303FB0020C1
:401680004078704794C1FF1F431E072B0CD8074A064B00010344805C5B7800F00F0043EA0020023880B2704700207047FC5F0040431E072BF0B531D8194B0C2505FB00354C
:4016C000EC88184FA4B2C4F50074A2424FF00C0404FB003488BFEA88E67884BFC2F5007292B2104C46EA12260501EE552C44D6B2667041B90C2202FB00300023437043799D
:40170000DBB2A370F0BD0E46074F2F44751AADB2AA42EFD916F8015B3D72F7E7F0BD00BF94C1FF1FFC5F004070600040431E072B0AD8064A0C2303FB002300225A705A7948
:40174000034BD2B200011A54704700BF94C1FF1FFE5F004038B505461446D1B1431E072B19D8FFF791FFA04203D22846FFF78CFF04460A4609482B011844531A9BB29C42D3
:4017800003D9037A02F8013BF7E72846FFF7CEFF02E00C4600E00024204638BD7060004030B51A4A1A491B4D0878138803449BB21380194A00231488D8B2A4B27CB1082B30
:4017C0000CD050680078C0B2E85450680133013050601088013880B21080ECE718460B780E4C082B0E4A00D040B10E4D2B7883F080032B700F232370022301E00223237063
:401800001370094B1870087030BD00BF04C2FF1F00C2FF1F006000407CC1FF1F79C1FF1F8EC1FF1F8AC1FF1F01C2FF1F074B02221A70074B80221A70064B0F221A70064A7D
:4018400000231370054A0120137070478EC1FF1F8AC1FF1F79C1FF1F00C2FF1F01C2FF1F30B5164B16491B780A8803F00F03023BDBB21A4492B20A80124C134A00201188F0
:4018800089B279B173B15568215C013BC9B229705168DBB20131516011880130013989B21180ECE7094A1370094A137883F080031370084B0B221A7030BD00BF296000409D
:4018C00004C2FF1F006000407CC1FF1F01C2FF1F8AC1FF1F79C1FF1F064A06231370064A01201370054B80221A70054B00221A70704700BF8EC1FF1F79C1FF1F8AC1FF1F5B
:4019000001C2FF1F054B9A683AB19A68044910709A680988518000229A6070477CC1FF1F04C2FF1F08B5124B1A78D2B21A701B78DBB21A0602D50F4A137008BD0220FFF7BA
:40194000E1FF0D4B1B7803F06003202B05D0402B06D043B900F0B6FC04E000F0F7FD01E000F0E2FD10B9034B03221A7008BD00BF2860004079C1FF1F0060004008B5084AB6
:40198000084B0120197813880B449BB21380064B00221A70FFF7B6FF044B03221A7008BD04C2FF1F00C2FF1F8EC1FF1F79C1FF1F08B50C4B1B78DBB2042B07D0062B09D020
:4019C000022B0DD1BDE80840FFF7D8BFBDE80840FFF746BF0320FFF795FF034B03221A7008BD00BF8EC1FF1F79C1FF1F08B5054B002201201A70FFF785FF034B03221A7036
:401A000008BD00BF8EC1FF1F79C1FF1F08B50A4B1A7832B11A78094942F080020A7000221A70074B002201201A70FFF76BFF054B03221A7008BD00BF78C1FF1F0860004017
:401A40008EC1FF1F79C1FF1F074B1B78DBB2042B05D0062B05D0022B05D1FFF7A1BEFFF7C5BFFFF7D3BF70478EC1FF1F38B51D4C2378DBB2DD0634D518060AD503F00F033B
:401A8000012B2ED1FFF74EFF174B1B78190609D538BD5A0602D5FFF7D7FF03E09D0620D5FFF786FF23781B061BD4104B1A78104B1B7813430F4A13701278934211D10A4A8B
:401AC0000849154613782078DBB2000605D41378DBB20B700B7803F00F0328788342F1D138BD38BD2860004079C1FF1F8AC1FF1F01C2FF1F29600040054A00231380054AF8
:401B0000916819B191680B7092685380704700BF04C2FF1F7CC1FF1F0E4808B503889BB213B9FFF783FE13E00B4B02221A700B4B00221A70FFF7E0FF094AD17993790288BD
:401B400043EA012392B2934238BF0380FFF728FE012008BD7CC1FF1F8EC1FF1F8AC1FF1F0060004008B50C4B04221A700B4B80221A70FFF7C1FF0A4A0120D179937943EABA
:401B8000012308490A8892B2934238BF0B80064B0B221A7008BD00BF8EC1FF1F8AC1FF1F006000407CC1FF1F79C1FF1F084B01221A700F3B9B7C074B1A7B02F00302012A64
:401BC0001EBFDA7B82F08002DA7301225A7370470B60004094C1FF1F094B02221A700F3B93F82230074B1A7E02F00302012A1EBFDA7E82F08002DA7601225A76704700BF96
:401C00000B60004094C1FF1F7047FFF79FBC000008B50B4B18780138C0B200F06BF9094B09491B79DBB200EBC3004269CB5C02EBC3035B68054A596A0B781380516008BD81
:401C40008DC1FF1F006000407AC1FF1F7CC1FF1F08B50D4B18780138C0B200F04BF90B4B0B491B79DBB200EBC3004269CB5C02EBC3035B68DB69597813F8022B42EA0122C3
:401C800004490A804B6008BD8DC1FF1F006000407AC1FF1F7CC1FF1F38B5174C00232380164B18780138C0B200F024F9144AD3781179DBB2F1B913490978CDB2591E0229F6
:401CC00018D8416903F1005301EBC5014968013B927801EBC30011F83330D2B2934209D30C2353434168CA185068CB5A606023809368A36038BD00BF7CC1FF1F8DC1FF1F01
:401D0000006000407AC1FF1F10B5394B1A791978D2B211F0800F194632D05B78013B052B63D8DFE803F0101826626203CB78212B02D1FFF76DFF08E02D4BDB78222B54D196
:401D4000FFF786FF01E0FFF7A7FF2A4B1B889BB2002B4AD009E0002A47D18B78002B44D1244B01221A80244A5A60BDE81040FFF7D3BE002A39D11F4B01221A801F4AF3E7E5
:401D80005978C9B20A290DD00B2922D009292CD1FFF782FF174B1B889BB233B3BDE81040FFF7E0BE0ABB9A7802F0FF01EAB9DB78114ADBB21370124B14781878844201D2FE
:401DC00019700EE0197801290BD91278D2B21A7007E052B99A78012A07D89B78074ADBB21370BDE81040FFF777BD002010BD00BF006000407CC1FF1F06C2FF1F08C2FF1F1F
:401E000007C2FF1F00F09ABB70B50446184B88B003AA03F11006154618685968083303C5B3422A46F7D11B782B70FCB12223237001AD032328466370FFF7D4F800222046D7
:401E40001146AB5C08AC04EB131414F8144C03F00F03847008AC234413F8143C0132082AC1700371417100F10400EAD108B070BDF02E00002DE9F0411A4D01222E460C207F
:401E800080274FF0080E184B00FB025C14012344187016499CF805802144B8F1000F07D09CF8044024064CBF887081F802E000E08F7000FB0261CC880132E4B29C71CC88DF
:401EC000092AC4F30724DC71CC88E4B21C71C988C1F307215971D6D1054BFF221A70BDE8F08100BF94C1FF1F70600040FC5F00400A600040064B074A1B7802EBC302536831
:401F00001A7C824286BF03EBC00358690020704788C1FF1F042F00002DE9F84F424B1A78002A7ED01878414D0138C0B2FFF7E2FFA8463F4AC3681478007ADFF800C1E4B2B5
:401F400003EBC0000C2600274FF0010E834268D01A78A24263D11CF80420597891425ED19A7893F8039002F07F0206FB02FA05EB0A01CF7093F802B009F0030981F804B011
:401F800093F803B005F80AB0B3F804A0A1F808A093F902A0BAF1000F0BDAB9F1010F0CBF4FF007094FF00D0981F8059081F801E009E0B9F1010F0CBF4FF005094FF0090932
:401FC00081F805904F704FEA02191A4906FB0282494481F802E0B2F808A0CAF3072A81F800A0B2F808A05FFA8AFA81F801A0B2F806A011495FFA8AFA494481F806A0B2F871
:402000000690C9F3072981F80790B2F806905FFA89F981F80490D288C2F307224A71083394E7BDE8F88F00BF8DC1FF1F94C1FF1F89C1FF1FFC5F0040706000407AC1FF1F07
:4020400008B5064B18780138C0B2FFF753FF20B143681B7900EBC300406908BD8DC1FF1F00212DE9F84F0B464C4E0C2707FB01F501317219092973554FF000049370474D12
:40208000D3701381937253705371EFD118B1444B1C70444B1C70444B1A78002A7BD0187801240138C0B2FFF725FFA0464368DFF8F0E0DB790C2713F0400F3C4B4FF0000C0B
:4020C0001A7814BF42F0010202F0FE021A70027AD20007FB0451C36803EB02094B4531D093F802A00AF07F06A64229D10E89B3F804B0B6B25E4538BFA1F808B01E7893F878
:4021000001B01EF80660B3451AD181F804A0DE780E7093F902A0DE78BAF1000F06F0030607DA012E0CBF07260D264E7181F8018006E0012E0CBF052609264E7181F801C03A
:402140000833CBE70134092CC3D1C1680A328B1C0A440C200833934209D013F8081C13F80A4C01F07F0100FB01518C72F2E7FFF767FF0F4B0122186000230C2000FB0251F2
:40218000CB80098901320B44092A9BB2F6D1BDE8F84FFFF76FBEBDE8F88F00BF94C1FF1F7AC1FF1F02C2FF1F8DC1FF1F8BC1FF1F90C1FF1F114B1B7903F07F035A1E072A7E
:4021C00019D80F490C2202FB031291781B0141F0010191700021D170517841F002015170127912F0800F074A1A4414BF8D2389239370FFF771BB0020704700BF0060004088
:4022000094C1FF1FFC5F004030B4194B1A7902F07F02531E072B27D8164B0C2404FB02339978154D01F0FE0199700021D97029461201505D114400F07F0050555A7802F0A9
:40224000FD025A701A795B78120605D5012B01D18C7006E00D2303E0012B0CBF082309238B7030BCFFF738BB002030BC704700BF0060004094C1FF1FFC5F004010B50D4BDF
:402280000D4C21791878C9B20138C0B2FFF732FE43681B798B4201D2012909D8074A0848535CDBB24354A3780120DBB2535410BD002010BD8DC1FF1F006000407AC1FF1F62
:4022C00002C2FF1F38B5874A874C13780021DBB221801806517840F188800A2900F20081DFE811F05800FE00FE00FE00FE00FE000B00FE007900FE007D00D3787949012B7F
:4023000009D17A4B1A787A4B03EBC2035B685B686360122310E0CB78022B12D18878FFF7E9FD002800F0DC80436863606368DA7863689B7843EA02232380BDE83840FFF772
:40234000EBBBCB78032B21D16A4B00228878D5B2854203D3634A92783AB910E0187801320028F7D018780344F0E75E4A62499278097C914203D16148FFF746FD5F4B1A78B8
:40238000002A00F0AD801A78228018E0BDE8384000F0DCB813F0030313D0022B40F0A0802380504B0C211B7903F07F02544B01FB02339A78534BD2B21A7000225A706360F0
:4023C000BBE702222280504A11784E4AC9B2117053706260B1E7012323804C4BEFE70123238013794A4A1344E9E701390A2977D8DFE801F037764F76067676760A76200071
:402400009378444ADBB25AE0937803F0FF0153B93E4B1A7891425FD019703F4B01201870FFF71EFE58E0481EC0B2FFF763FD0028EED155E0FFF722FF002851D0294A374972
:4024400013791279DBB2D2B20A70354A3049D25CCB5C9A4240D0304B01221A70FFF75CFD3AE003F00303012B2BD009D3022B37D11C4B9B78002B33D1BDE83840FFF7C4BE81
:40248000184B9B78012B2BD11F4A137803F0FD0315E003F00303012B13D008D3022B1FD1104B9B78E3B9BDE83840FFF783BE0D4B9B78012B14D1144A137843F00203137024
:4024C0000AE0084B1A795AB998781B791549DBB2CA5C22EA0002CA54BDE83840FFF7FCB9002038BD006000407CC1FF1F88C1FF1F042F0000D22F0000363000004FC2FF1F10
:4025000094C1FF1F72C1FF1F8BC1FF1F8DC1FF1F7AC1FF1F78C1FF1F8CC1FF1F89C1FF1F02C2FF1F8FC1FF1F034B00201A78120648BF5B78704700BF00600040024B187849
:40254000C0F38010704700BF8F4500400F4A137803F00303012B0AD0022B0DD113790C2103F07F020A4B01FB02339B7A00E01379DBB2012B08D800E00023064A1268D35CD7
:40258000032B01D1FFF7C0BB002070470060004094C1FF1F90C1FF1F014B1868704700BF44C1FF1F0E4B70B51E460E4C0025E41AA410A54204D056F8253098470135F8E787
:4025C00000F044FD084B094C1E46E41AA4100025A54204D056F8253098470135F8E770BD5830000058300000583000006030000010B5431E0A44914204D011F8014B03F8B5
:40260000014FF8E710BD03460244934202D003F8011BFAE77047000000310000F4000000000000000000000000000000000000000000000000000000000000000000000094
:40264000000000000000000000000000000000000000000000000000000000000000000000000000000000000000000000000000000000000000000000000000000000005A
:40268000000000000000000000000000000000000000000000000000000000000000000000000000000000000000000000000000000000000000000000000000000000001A
:4026C00000000000000000000000000000000000000000000000000000000000000000000000000000000000000000000000000000000000000000000000000000000000DA
:402700000000000000000000000000000000000000000000000000000000000000000000000000000000000000000000000000000000000000000000000000000000000099
:402740000000000000000000000000000000000000000000000000000000000000000000000000000000000000000000000000000000000000000000000000000000000059
:402780000000000000000000000000000000000000000000000000000000000000000000000000000000000000000000000000000000000000000000000000000000000019
:4027C00000000000000000000000000000000000000000000000000000000000000000000000000000000000000000000000000000000000000000000000000000000000D9
:402800000000000000000000000000000000000000000000000000000000000000000000000000000000000000000000000000000000000000000000000000000000000098
:402840000000000000000000000000000000000000000000000000000000000000000000000000000000000000000000000000000000000000000000000000000000000058
:402880000000000000000000000000000000000000000000000000000000000000000000000000000000000000000000000000000000000000000000000000000000000018
:4028C00000000000000000000000000000000000000000000000000000000000000000000000000000000000000000000000000000000000000000000000000000000000D8
:402900000000000000000000000000000000000000000000000000000000000000000000000000000000000000000000000000000000000000000000000000000000000097
:402940000000000000000000000000000000000000000000000000000000000000000000000000000000000000000000000000000000000000000000000000000000000057
:402980000000000000000000000000000000000000000000000000000000000000000000000000000000000000000000000000000000000000000000000000000000000017
:4029C00000000000000000000000000000000000000000000000000000000000000000000000000000000000000000000000000000000000000000000000000000000000D7
:402A0000F0B55B23B5B08DF8003002238DF80130FA238DF802304A238DF80330BF238DF8053097238DF80630C1238DF80730B4238DF8083062238DF80930B7238DF80A3064
:402A40004B238DF80B303F238DF80C3038238DF80D30AF2300248DF80E30054625230E4617466946024604A88DF80F308DF80440FDF79CFB234622460DF803200133102BC8
:402A8000FAD13A46314604A8FDF7A0FB2A46694604A8FDF78BFB35B0F0BD000000000000000000000000000000000000000000000000000000000000000000000000000042
:402AC00000000000000000000000000000000000000000000000000000000000000000000000000000000000000000000000000000000000000000000000000000000000D6
:402B00000000000000000000000000000000000000000000000000000000000000000000000000000000000000000000000000000000000000000000000000000000000095
:402B40000000000000000000000000000000000000000000000000000000000000000000000000000000000000000000000000000000000000000000000000000000000055
:402B80000000000000000000000000000000000000000000000000000000000000000000000000000000000000000000000000000000000000000000000000000000000015
:402BC00000000000000000000000000000000000000000000000000000000000000000000000000000000000000000000000000000000000000000000000000000000000D5
:402C000000000000637C777BF26B6FC53001672BFED7AB76CA82C97DFA5947F0ADD4A2AF9CA472C0B7FD9326363FF7CC34A5E5F171D8311504C723C31896059A071280E2BD
:402C4000EB27B27509832C1A1B6E5AA0523BD6B329E32F8453D100ED20FCB15B6ACBBE394A4C58CFD0EFAAFB434D338545F9027F503C9FA851A3408F929D38F5BCB6DA2105
:402C800010FFF3D2CD0C13EC5F974417C4A77E3D645D197360814FDC222A908846EEB814DE5E0BDBE0323A0A4906245CC2D3AC629195E479E7C8376D8DD54EA96C56F4EA7B
:402CC000657AAE08BA78252E1CA6B4C6E8DD741F4BBD8B8A703EB5664803F60E613557B986C11D9EE1F8981169D98E949B1E87E9CE5528DF8CA1890DBFE6426841992D0FE8
:402D0000B054BB168D01020408102040801B3652096AD53036A538BF40A39E81F3D7FB7CE339829B2FFF87348E4344C4DEE9CB547B9432A6C2233DEE4C950B42FAC34E08E9
:402D40002EA16628D924B2765BA2496D8BD12572F8F66486689816D4A45CCC5D65B6926C704850FDEDB9DA5E154657A78D9D8490D8AB008CBCD30AF7E45805B8B34506D047
:402D80002C1E8FCA3F0F02C1AFBD0301138A6B3A9111414F67DCEA97F2CFCEF0B4E67396AC7422E7AD3585E2F937E81C75DF6E47F11A711D29C5896FB7620EAA18BE1BFCA9
:402DC000563E4BC6D279209ADBC0FE78CD5AF41FDDA8338807C731B11210592780EC5F60517FA919B54A0D2DE57A9F93C99CEFA0E03B4DAE2AF5B0C8EBBB3C83539961175B
:402E00002B047EBA77D626E169146355210C7D0010510040100050510040100000000140001000140140000800400140000A004C0140000200500140200000000145004057
:402E4000075200400117014001190140034001400241014002420140024301400347014003480140024C0140015101407E02048614AA1C3C24A234A464287C64EE0AEE0A9F
:402E800033803640CC30A640A780A640A780A640A78008080F40C20CAE40AF80EE50AC08AF40000A86000086000000000000290000290000000000006400002400000000AB
:402EC000C000AA0000AA000000000000003C000000000000A20000A2000000000000A40000A40000000000006930132E003C0101303132333435363738394142434445463C
:402F000000000000010000000C2F00000100000036300000000000000000000001000000242F0000010000000D30000002000000462F000001000000582F0000000000005D
:402F4000442F0000030000000103400003000000820340000300000001000000602F000000000000942F000000000000882F0000000000000000000001000000A02F0000F2
:402F8000010000001F3000004100000071C2FF1FB2C2FF1F410000000EC2FF1F0AC2FF1F240005010900A1000900A1000900150025FF7508954091020900150025FF750820
:402FC00095408102C0C000000A03300030003000310004030904100363006F006400650073007200630026035300430053004900320053004400200042006F006F00740049
:403000006C006F006100640065007200000902290001010080FA09040000020300000209211101000122240007050103400001070582034000011201000200000008B404DA
:403040001DB755000102800143000000F8B500BFF8BC08BC9E4670475D000000A1060000F8B500BFF8BC08BC9E4670473900000080300000C8C0FF1F8000000070010000DE
:4030800000000000182600001C2600000000007D00FA0000400000000090D003000000000000000000000000000000000000000000000000000000000000000048300000FE
:4030C000000000000000000000000000000000000000000000000000000000000000000000000000000000000000000000000000000000000000000000000000E4C0FF1F0E
:40310000000000000000000000000000000000000000000000000000000000000000000000000000000000000000000000000000000000000000000000000000000000008F
:40314000000000000000000000000000000000000000000000000000000000000000000000000000000000000000000000000000000000000000000000000000000000004F
:40318000000000000000000000000000000000000000000000000000000000000000000000000000000000000000000000000000000000000000000000000000000000000F
:4031C00000000000000000000000000000000000000000000000000000000000000000000000000000000000000000000000000000000000000000000000000000000000CF
:020000040001F9
:40FFC00000000000000000000000000000000000000000550100010000000000000000000000000000000000000000000000000000000000000000000000000000000000AA
:0200000480007A
:4000000000000000000000000000000000000000000000000000000000000000000000000000000000000000000000000000000000000000000000000000000000000000C0
:400040000000000000000000000000000000000000000000000000000000000000000000000000000000000000000000000000000000000000000000000000000000000080
:400080000000000000000000000000000000000000000000000000000000000000000000000000000000000000000000000000000000000000000000000000000000000040
:4000C0000000000000000000000000000000000000000000000000000000000000000000000000000000000000000000000000000000000000000000000000000000000000
:0200000490006A
:040000008000000775
:0200000490105A
:04000000BC90ACAF55
:0200000490303A
:02000000C557E2
:0200000490402A
:400000000000000000000000000000000000500000000000000000000000000000000000000000000000000000000000000000000000000000000000000000000000000070
:400040000000000000000000000000000000000000000000000000000000000000000000000000000000000000000000000000000000000000000000000000000000000080
:0200000490501A
:0C00000000012E13306900002E23F5C013
:00000001FF