:400000000040002011000000550300005503000008B5054B1A6803F53F5302331A6000F08DFA00F09FF900BFFA46004010B5054C237833B9044B13B10448AFF30080012357
:40004000237010BD48C1FF1F000000005C220000084B10B51BB108490848AFF300800848036803B910BD074B002BFBD0BDE81040184700BF000000004CC1FF1F5C2200008C
:40008000C8C0FF1F0000000008B5344A13782F3203F0FE0302F82F3C92F84B3003F0FE0382F84B30137803F0FE03137012F8013C03F0FE0302F8013C12F80C3C03F0FE0372
:4000C00002F80C3C12F82A3C03F0FE0302F82A3C12F82E3C03F0FE0302F82E3C12F80D3C03F0FE0302F80D3C12F82B3C03F0FE0302F82B3C12F8083C03F0FE0302F8083C5E
:40010000093A137803F0FE031370537B03F0FE035373137B03F0FE03137312F8113C03F0FE0302F8113C12F8123C03F0FE0302F8123C12F8153C03F0FE0302F8153C12F820
:40014000163C03F0FE0302F8163C92F8553003F0FE0382F8553000F055FCFEE702500040F8B572B6664B61221A700622A3F5A0631A705222A3F580731A70624B624A1B78DE
:40018000624EDBB2137040F61802614B19251A8041F25122002423F8022C33784FF4F07003F0010343EA440400F09EFE013D04F003041CD0032CF0D1564B4FF480721A80CD
:4001C00007221A70544A002448211470917002221C705C7103F8032C012283F8FC274F4A4F4D1378062643F00403137000E0FEE706FB045300219A881868013402F021F86B
:40020000052CF5D100221146464C04F1300554F8210005EB420320F0FF06C0B2024405EB4200013303300233984206D013F8037C13F802EC07F806E0F5E701310C29E6D143
:40024000394A137843F002031370137C43F002031374364B364A186859681C4603C2198934481180194651F80A2F02604A68426054F8120F304A616803C221892F48118091
:40028000194651F81C2F2E4C02604A681946426051F8242F02614A681946426151F82C2F02624A681946426251F8342F02634A681946426351F83C2F02644A6821494264A9
:4002C00053F8442F0A605A684A601F4A137843F0080313701D4B02F5AA521B780C32DBB203F007011B0911705370194B44221A70A3F5A653163B0FCB07C42380F8BD00BFA7
:40030000004800400F010049A146004025420040224200400440004006400040E8460040602200008022000003500140E022000000510040C2510040F05100401251004030
:40034000B04300406251004022430040CF0100497658004008B501F03DFF03680C2B00D1FEE7FEE780B51148114B0025C0B1A3F1100192C922460439161BB74204D051F8F8
:40038000046F42F8046BF7E7114653F8046C8C1AA64202D041F8045BF9E701381033E5E701F01EFFFFF770FEFEE700BF01000000C8240000104A114B10B41A60104A114C63
:4003C0001368114843F4007313600023032B98BF54F823204FEA830188BF0C4A0133302B4250F3D10A4B1A780A4B1A700A4B064A10BC1A60FFF7B4BE0004FA050CED00E0A1
:4004000014ED00E00000000000C0FF1F55030000BC760040C0C0FF1F08ED00E000470023014422B1013A885C0344DBB2F9E71846704770B5C0B06A4620F0FF035C1E03F191
:40044000FF05D31A14F8016FAC421E55FAD1C3B2D45C8C4208D0D154C0F30721C0F3074000F0C0FB00F016FC40B070BD01380B284FD8DFE800F0060C12181E24302A363C40
:4004800042480902C1F5FF3101F5E07147E00902C1F5FF3101F2C11144E00902C1F5FF3101F2C51136E00902C1F5FF3101F2C91138E00902C1F5FF3101F5E8712FE0090279
:4004C000C1F5FF3101F2D11129E00902C1F5FF3101F5EB711EE00902C1F5FF3101F5E97118E00902C1F5FF3101F5EA7112E00902C1F5FF3101F5EC7114E00902C1F5FF3161
:4005000001F5EE710BE00902C1F5FF3101F5F07108E000210B78487843EA002070470878C0B270470B784A788878000440EA02201843CB7840EA03607047000010B50B4AA9
:40054000137803F0C003802B0ED10024147021460220FFF78BFF38B121460220FFF786FFBDE81040FFF75ABF10BD00BFFA460040F8B5014605460320FFF778FF294604467A
:400580000420FFF773FF294606460620FFF76EFF01283FD0294603200134FFF767FF06EB04260024274601300002864209D910F8013B5A1ED2B2FD2A1C4498BF0127E4B2AB
:4005C000F3E729460320FFF751FF144B01309E424FEA00204FEAD00014BFF6084FF48046B04206D200F190431B7801301C44E4B2F6E729460120FFF739FF6442E4B28442B8
:400600000AD14FB12802C0F5FF30012100F2D110FFF70FFF0020F8BD0620F8BDC0FF01002DE98048ADF5637D00F06EFC62B600252E462F46DFF8C883FF2301AA4FF496714F
:400640004CA800F091FC0028F6D1BDF80420062A40F25D819DF83031012B40F05881BDF83241E31D934200F25081B3F5967F00F24C814CAB23449B79172B40F04881231DAD
:400680009BB20DF22F122BB1D15C013B084480B29BB2F8E74CAB1A1951791379404243EA012380B2834240F034819DF831319DF83491A3F131020A2A00F2C880DFE802F050
:4006C0000616C63B76C67B8F3B9FBA00002E00F01E81002C40F01B812046FFF749FFB0FA80F040098DF834013146E1E0002E00F00E81012C40F00B81B9F1010F00F207818B
:40070000BB4B1B681B68C3F30742914502D1C3F3072303E08CBF00234FF480738DF834311B0A8DF835310024FF238DF836318DF837410421BCE0342B12D1002E00F0E780ED
:40074000032C40F0E480A9F140033F2B8CBF4FF4907510252A46002197A801F072FD05E0002E00F0D480022C40F2D18097AB033C224658190DF2371101F058FDA9F14003AB
:400780002C443F2BA4B204D800F034FA8023102203E04FF480734FF4907294427ED1BDF835519D42C0F0B780012641E0002E00F0AE80002540E7002E00F0A98004EB050992
:4007C000B9F5967F00F3A18097AB22464DA95819002401F02BFD1FFA89F5214668E0002C40F09580834A04AB92E803004DAA83E8030082E8030025460126082158E0002E31
:4008000000F08580032C40F08280A9F140033F2BBDF835B108D800F0EDF9BBF17F0F4FEA0B1140F2AC8003E0BBF1FF0F40F2B2800A243CE00020FFF79BFE10B9802388F8F7
:40084000003000F06DFB00F0FFF960E06A4A12684AB35EB3ADF80A404FF000094DAC04A98DF808300394CDF81090CDF81490069402A89047BDF81410B1F5937F02D3069B6B
:40088000A34205D0069B03B929B99DF810400FE00E2449460CE00E24194609E0002501260324294604E00524114601E00524002101238DF830310A1D0B0A8DF83331ADF8FF
:4008C00006108DF831418DF8321192B200230DF22F102AB1845C013A23449BB292B2F8E75B424DAA9BB253540DF235121B0A53540DF59B7317225A54073196230DF1060229
:4009000089B24CA800F011FB96E60324CFE70424CDE70824CBE7B9F13F0F1DD8344B05EB09221B6892B21968C1F30F2311F0FF0F1CBF01339BB29A421DD36FB939464FF4A3
:40094000907204A801F07DFC4FF4907304AAFF21012000F0E1F801272346294697AA484600F0DAF800280CBF00240A24002500F091F9012695E7002501260A2491E7102225
:400980001E48FFF74CFD044664428DF83441012100248DE74FEA092A0AEB0B014FF4807209020020FFF73BFDB9F13F0F0446EBD80AF1107ADA444FEA4A1A002313F80A0076
:4009C00001330444202BE4B2F8D1B9F1010FDBD1BBF1FF0FD8D100210520FFF747FD201AC4B200210620FFF741FD201AC4B2CBE7CCC0FF1F2C23000064C1FF1F00800040FF
:400A0000FA46004038B500F059F810B1002000F019F90020FFF7ACFD144C0021236800281A68084614BF06250025FFF7F8FC63681B78181A00F0FF00834202D123681B6830
:400A400013B9002000F0FEF8094B1A7802F0C002402A1A4600D01DB100231370FFF7E0FD80221A70BDE8384000F0EEB8CCC0FF1FFA46004038B500F047F900F0E5F9C0B9BC
:400A800000F01CFA0728044610D10B4D2A780A4B910703D4012000F0F5F8F7E71A78920704D51B789B0814BF0724002400F0ECF900E00424204638BD2247004070B5FFF7E4
:400AC000D9FF044610BB00F01FF900F0BDF9E0B9012000F09FF907280AD10D4D02210D4800F024F902280A4E05D02B789B07F5D54FF0FF3406E033789A0703D4012000F03E
:400B0000C1F8F8E700F0C0F900E00424204670BD2247004074C1FF1F41282DE9F04105460E46174698460AD8C41E3C2C8CBF002401243F2804D8B1F5807F30D806E0012498
:400B4000812E28BF0124B8F1100F28D13FB334BB00F07AF928BB43463A463146284600F003F9072834D1DFF8748098F800201B4B12F0020F1F4603D1012000F083F8F4E730
:400B80001A78900706D51B789B080CD002E01A78920719D44FF0FF3400F076F91AE0012418E0042416E00E4A314653782846127800F010F907280BD13A78084B9107E6D432
:400BC000012000F05FF8F7E71B789B08E4D0E1E70446E1E72046BDE8F08100BF2247004074C1FF1F3F288CBF10234FF48073FFF793BF000008B500F07FF90F4A137843F015
:400C000008031370137C43F0080313740B4BC8221A700B4A137843F010031370137C43F01003137402F5557213789B06FCD5BDE8084000F065B900BFA043004001470040E3
:400C4000AC43004001BE7047024A137843F0010313707047F646004038B50446084DB4F5004F05D9286800F03FF9A4F50044F6E7034B58686043BDE8384000F035B900BFCC
:400C8000D4C0FF1F024B1B7A584300F02DB900BFD4C0FF1F08B500F02FF900BF00BF00BF00BF00BF00BF00BF00BF00BF00BF00BF00BF00BF00BF00BF00BF064A13889BB2C1
:400CC00043F0040313801388BFF36F8FBDE8084000F016B900480040054A00F01F00126800F1100352F8230042F82310704700BF08ED00E000F01F0000F16040490100F5C8
:400D00006440C9B20170704708B500F0F5F8064A137843F008031370137C43F008031374BDE8084000F0ECB8A04300402DE9F0410E464B1E0A4FDFF82C80451EC418A54238
:400D40000BD03B78DB0703D40120FFF79BFFF8E798F8003005F8013FF1E73046BDE8F081224700402047004070B5184D2C78A60727D5174CB6262670D526267002262670F0
:400D80002D78AD071FD416462070B51AADB2AB4203D916F8015B2570F7E7B3F5807F01D0072070BD3F28FBD800F5103001EB0021490100235A5C0133D2B2202B2270F9D15D
:400DC000EEE7042070BD092070BD00BF224700402047004070B50D4D2C78A60712D50C4CB6262670D8262670052626702D78AD070AD42070080AC9B22070217022702370F8
:400E0000072070BD042070BD092070BD22470040204700400A4A137899070CD5094BB6211970E12119700E2119701278920704D4187007207047042070470920704700BF35
:400E4000224700402047004038B500F055F80C4A147874B901250B4915700B682B400AD00B6823F001030B6000BF00BF00BF556002E0042400E01C4600F042F8204638BD7A
:400E800068C1FF1F0400084010B500F035F8094B00215A681970012A08D1074C226842F00102226000BF00BF00BF5960BDE8104000F026B868C1FF1F04000840074B1B7834
:400EC0009B0708D5064BB6221A70E0221A700D221A70072070470420704700BF2247004020470040000000000230800803D000BF01380046FCD17047EFF3108072B6704713
:400F000080F31088704700BF08B562B60221002000F05EF9014B01221A7008BD70C1FF1F00F094B9012000F055BA70B503EB83030E4615460146402202205C0000F00CFA02
:400F4000022000F0EDF930B92CB10120013CFFF783FEA4B2F4E7022000F0E2F910B12E80002070BD102070BD2DE9F84303EB83035C00224B17461A78804689461E46A2B1DE
:400F8000254600F0BBF930B92DB10120013DFFF763FEADB2F5E700F0B1F9A0B100F0B4F9FFF7C0FF002333700DE000F0ADF950B100F0A4F938B1FFF7B5FF04E054B1FFF7E4
:400FC0004BFE013CA4B2012000F0AAF901284FF00100F3D100F0A4F901280AD14A46402A28BF4022414600F009FA38800020BDE8F88300233B801020BDE8F88370C1FF1F71
:40100000F8B5FFF779FF3C4A01251378022743F001031370137C394C43F001031374384B02F5E3521D700B3203F8947C1378064603F07F0313700020FFF724FE2378314A08
:4010400003F0F90323701378284603F0DF03137023782B432370FFF715FE2820FFF712FE294B38461A7802F07F021A701A7802F0BF021A7023783B432370FFF703FE23781C
:40108000304643F004032370204B00241C705C70FFF736FF07211720FFF72CFE1C491720FFF71AFE07211820FFF724FE19491820FFF712FE07211520FFF71CFE1649152099
:4010C000FFF70AFE20460721FFF714FE13492046FFF702FE28460721FFF70CFE10492846FFF7FAFD07210C20FFF704FEBDE8F8400C490C20FFF7F0BDA543004094430040CE
:401100009D60004012600040F851004084600040B318000015170000B11800005518000081180000AD1A000008B51C4B01221A701B4B18701B48002303701B4803701B4895
:4011400003701B4803701B4803701B4803701B4803701B4B4FF4000018604FF0807018604FF4001018601A6002221A60154B19B91A7802F0FE0202E01A7842F001021A7010
:40118000114B03221A70802203F8202C0120FFF7ABFE0E4B04221A7008BD00BF08C2FF1F88C1FF1F8EC1FF1F8CC1FF1F8DC1FF1F89C1FF1F78C1FF1F8BC1FF1F00C2FF1F52
:4011C00000E100E009600040286000401260004070B5074C054623780E461BB9FFF710FF0123237031462846BDE87040FFF79CBF71C1FF1F0C4B01221A700C4A00231370EE
:401200000B4A13700B4A13700B4A13700B4A13700B4A13700B4A13700B4B03221A70802203F8202C704700BF08C2FF1F8EC1FF1F8CC1FF1F8DC1FF1F89C1FF1F78C1FF1F4F
:401240008BC1FF1F00C2FF1F2860004008B5FFF753FE204A137803F07F031370937A03F0FB039372A2F5E352033A137803F0FE031370137C03F0FE031374174B1A7842F02D
:4012800080021A701A7842F040021A70FFF738FE124B4FF400021A604FF080721A604FF400121A6001221A6002221A6000F064FF0B4B4FF480521A600A4A002313700A4A0F
:4012C00013700A4A13700A4A13700A4A13700A4A137008BD08600040F851004080E100E080E200E08CC1FF1F8DC1FF1F89C1FF1F78C1FF1F8BC1FF1F71C1FF1F014B18786A
:40130000704700BF8DC1FF1F044B1A7802F0FF001AB118780022C0B21A7070478CC1FF1F024A0C2303FB00204078704794C1FF1F431E072B0CD8074A064B00010344805CA6
:401340005B7800F00F0043EA0020023880B2704700207047FC5F0040431E072BF0B531D8194B0C2505FB0035EC88184FA4B2C4F50074A2424FF00C0404FB003488BFEA8831
:40138000E67884BFC2F5007292B2104C46EA12260501EE552C44D6B2667041B90C2202FB0030002343704379DBB2A370F0BD0E46074F2F44751AADB2AA42EFD916F8015BE7
:4013C0003D72F7E7F0BD00BF94C1FF1FFC5F004070600040431E072B0AD8064A0C2303FB002300225A705A79034BD2B200011A54704700BF94C1FF1FFE5F004038B5054603
:401400001446D1B1431E072B19D8FFF791FFA04203D22846FFF78CFF04460A4609482B011844531A9BB29C4203D9037A02F8013BF7E72846FFF7CEFF02E00C4600E000243F
:40144000204638BD7060004030B51A4A1A491B4D0878138803449BB21380194A00231488D8B2A4B27CB1082B0CD050680078C0B2E85450680133013050601088013880B2BF
:401480001080ECE718460B780E4C082B0E4A00D040B10E4D2B7883F080032B700F232370022301E0022323701370094B1870087030BD00BF04C2FF1F00C2FF1F0060004049
:4014C0007CC1FF1F79C1FF1F8EC1FF1F8AC1FF1F01C2FF1F074B02221A70074B80221A70064B0F221A70064A00231370054A0120137070478EC1FF1F8AC1FF1F79C1FF1F2A
:4015000000C2FF1F01C2FF1F30B5164B16491B780A8803F00F03023BDBB21A4492B20A80124C134A0020118889B279B173B15568215C013BC9B229705168DBB20131516075
:4015400011880130013989B21180ECE7094A1370094A137883F080031370084B0B221A7030BD00BF2960004004C2FF1F006000407CC1FF1F01C2FF1F8AC1FF1F79C1FF1F9B
:40158000064A06231370064A01201370054B80221A70054B00221A70704700BF8EC1FF1F79C1FF1F8AC1FF1F01C2FF1F054B9A683AB19A68044910709A68098851800022AC
:4015C0009A6070477CC1FF1F04C2FF1F08B5124B1A78D2B21A701B78DBB21A0602D50F4A137008BD0220FFF7E1FF0D4B1B7803F06003202B05D0402B06D043B900F080FC87
:4016000004E000F0C1FD01E000F0ACFD10B9034B03221A7008BD00BF2860004079C1FF1F0060004008B5084A084B0120197813880B449BB21380064B00221A70FFF7B6FF0E
:40164000044B03221A7008BD04C2FF1F00C2FF1F8EC1FF1F79C1FF1F08B50C4B1B78DBB2042B07D0062B09D0022B0DD1BDE80840FFF7D8BFBDE80840FFF746BF0320FFF754
:4016800095FF034B03221A7008BD00BF8EC1FF1F79C1FF1F08B5054B002201201A70FFF785FF034B03221A7008BD00BF8EC1FF1F79C1FF1F08B50A4B1A7832B11A7809494B
:4016C00042F080020A7000221A70074B002201201A70FFF76BFF054B03221A7008BD00BF78C1FF1F086000408EC1FF1F79C1FF1F074B1B78DBB2042B05D0062B05D0022BA1
:4017000005D1FFF7A1BEFFF7C5BFFFF7D3BF70478EC1FF1F38B51D4C2378DBB2DD0634D518060AD503F00F03012B2ED1FFF74EFF174B1B78190609D538BD5A0602D5FFF76A
:40174000D7FF03E09D0620D5FFF786FF23781B061BD4104B1A78104B1B7813430F4A13701278934211D10A4A0849154613782078DBB2000605D41378DBB20B700B7803F00C
:401780000F0328788342F1D138BD38BD2860004079C1FF1F8AC1FF1F01C2FF1F29600040054A00231380054A916819B191680B7092685380704700BF04C2FF1F7CC1FF1FC6
:4017C0000E4808B503889BB213B9FFF783FE13E00B4B02221A700B4B00221A70FFF7E0FF094AD1799379028843EA012392B2934238BF0380FFF728FE012008BD7CC1FF1F79
:401800008EC1FF1F8AC1FF1F0060004008B50C4B04221A700B4B80221A70FFF7C1FF0A4A0120D179937943EA012308490A8892B2934238BF0B80064B0B221A7008BD00BF10
:401840008EC1FF1F8AC1FF1F006000407CC1FF1F79C1FF1F084B01221A700F3B9B7C074B1A7B02F00302012A1EBFDA7B82F08002DA7301225A7370470B60004094C1FF1F9D
:40188000094B02221A700F3B93F82230074B1A7E02F00302012A1EBFDA7E82F08002DA7601225A76704700BF0B60004094C1FF1F7047FFF79FBC000008B50B4B187801380F
:4018C000C0B200F035F9094B09491B79DBB200EBC3004269CB5C02EBC3035B68054A596A0B781380516008BD8DC1FF1F006000407AC1FF1F7CC1FF1F08B50D4B187801385F
:40190000C0B200F015F90B4B0B491B79DBB200EBC3004269CB5C02EBC3035B68DB69597813F8022B42EA012204490A804B6008BD8DC1FF1F006000407AC1FF1F7CC1FF1FD3
:4019400038B5174C00232380164B18780138C0B200F0EEF8144AD3781179DBB2F1B913490978CDB2591E022918D8416903F1005301EBC5014968013B927801EBC30011F835
:401980003330D2B2934209D30C2353434168CA185068CB5A606023809368A36038BD00BF7CC1FF1F8DC1FF1F006000407AC1FF1F10B5394B1A791978D2B211F0800F1946AD
:4019C00032D05B78013B052B63D8DFE803F0101826626203CB78212B02D1FFF76DFF08E02D4BDB78222B54D1FFF786FF01E0FFF7A7FF2A4B1B889BB2002B4AD009E0002AFE
:401A000047D18B78002B44D1244B01221A80244A5A60BDE81040FFF7D3BE002A39D11F4B01221A801F4AF3E75978C9B20A290DD00B2922D009292CD1FFF782FF174B1B88B0
:401A40009BB233B3BDE81040FFF7E0BE0ABB9A7802F0FF01EAB9DB78114ADBB21370124B14781878844201D219700EE0197801290BD91278D2B21A7007E052B99A78012A91
:401A800007D89B78074ADBB21370BDE81040FFF777BD002010BD00BF006000407CC1FF1F06C2FF1F08C2FF1F07C2FF1F00F064BB2DE9F0411A4D01222E460C2080274FF0F2
:401AC000080E184B00FB025C14012344187016499CF805802144B8F1000F07D09CF8044024064CBF887081F802E000E08F7000FB0261CC880132E4B29C71CC88092AC4F39F
:401B00000724DC71CC88E4B21C71C988C1F307215971D6D1054BFF221A70BDE8F08100BF94C1FF1F70600040FC5F00400A600040064B074A1B7802EBC30253681A7C824284
:401B400086BF03EBC00358690020704788C1FF1F342300002DE9F84F424B1A78002A7ED01878414D0138C0B2FFF7E2FFA8463F4AC3681478007ADFF800C1E4B203EBC00001
:401B80000C2600274FF0010E834268D01A78A24263D11CF80420597891425ED19A7893F8039002F07F0206FB02FA05EB0A01CF7093F802B009F0030981F804B093F803B045
:401BC00005F80AB0B3F804A0A1F808A093F902A0BAF1000F0BDAB9F1010F0CBF4FF007094FF00D0981F8059081F801E009E0B9F1010F0CBF4FF005094FF0090981F8059026
:401C00004F704FEA02191A4906FB0282494481F802E0B2F808A0CAF3072A81F800A0B2F808A05FFA8AFA81F801A0B2F806A011495FFA8AFA494481F806A0B2F80690C9F3F0
:401C4000072981F80790B2F806905FFA89F981F80490D288C2F307224A71083394E7BDE8F88F00BF8DC1FF1F94C1FF1F89C1FF1FFC5F0040706000407AC1FF1F08B5064B0F
:401C800018780138C0B2FFF753FF20B143681B7900EBC300406908BD8DC1FF1F00212DE9F84F0B464C4E0C2707FB01F501317219092973554FF000049370474DD37013810D
:401CC000937253705371EFD118B1444B1C70444B1C70444B1A78002A7BD0187801240138C0B2FFF725FFA0464368DFF8F0E0DB790C2713F0400F3C4B4FF0000C1A7814BF41
:401D000042F0010202F0FE021A70027AD20007FB0451C36803EB02094B4531D093F802A00AF07F06A64229D10E89B3F804B0B6B25E4538BFA1F808B01E7893F801B01EF8D9
:401D40000660B3451AD181F804A0DE780E7093F902A0DE78BAF1000F06F0030607DA012E0CBF07260D264E7181F8018006E0012E0CBF052609264E7181F801C00833CBE7D8
:401D80000134092CC3D1C1680A328B1C0A440C200833934209D013F8081C13F80A4C01F07F0100FB01518C72F2E7FFF767FF0F4B0122186000230C2000FB0251CB800989C6
:401DC00001320B44092A9BB2F6D1BDE8F84FFFF76FBEBDE8F88F00BF94C1FF1F7AC1FF1F02C2FF1F8DC1FF1F8BC1FF1F90C1FF1F114B1B7903F07F035A1E072A19D80F49D6
:401E00000C2202FB031291781B0141F0010191700021D170517841F002015170127912F0800F074A1A4414BF8D2389239370FFF7A7BB0020704700BF0060004094C1FF1FEB
:401E4000FC5F004030B4194B1A7902F07F02531E072B27D8164B0C2404FB02339978154D01F0FE0199700021D97029461201505D114400F07F0050555A7802F0FD025A7017
:401E80001A795B78120605D5012B01D18C7006E00D2303E0012B0CBF082309238B7030BCFFF76EBB002030BC704700BF0060004094C1FF1FFC5F004010B50D4B0D4C217943
:401EC0001878C9B20138C0B2FFF732FE43681B798B4201D2012909D8074A0848535CDBB24354A3780120DBB2535410BD002010BD8DC1FF1F006000407AC1FF1F02C2FF1F37
:401F000038B5874A874913780020DBB20880180640F1878050780A2800F2FF80DFE810F05600FD00FD00FD00FD00FD000B00FD007700FD007B00D3787948012B09D17A4BB6
:401F40001A787A4B03EBC2035B685B684B60122310E0C378022B12D18078FFF7E9FD002800F0DB8043684B604B68DA784B689B7843EA02230B80BDE83840FFF721BCC37846
:401F8000032B1FD16A4B00228478D5B2A5420BD3634A92787AB1624A664C9078247C664A844208BF134606E01C780132002CEFD01C782344E8E71A78002A00F0AE801A7898
:401FC0000A8018E0BDE8384000F0DEB813F0030313D0022B40F0A1800B80514B0C201B7903F07F02554B00FB02339A78544BD2B21A7000225A704B60BDE702220A80514AE4
:4020000010784F4AC0B2107053704A60B3E701230B804D4BEFE701230B8013794B4A1344E9E7517801390A2977D8DFE801F037764F76067676760A7620009378444ADBB295
:402040005AE0937803F0FF0153B93F4B1A7891425FD019703F4B01201870FFF71FFE58E0481EC0B2FFF764FD0028EED155E0FFF723FF002851D02A4A374913791279DBB2B3
:40208000D2B20A70354A3149D25CCB5C9A4240D0304B01221A70FFF75DFD3AE003F00303012B2BD009D3022B37D11D4B9B78002B33D1BDE83840FFF7C5BE194B9B78012B42
:4020C0002BD1204A137803F0FD0315E003F00303012B13D008D3022B1FD1114B9B78E3B9BDE83840FFF784BE0D4B9B78012B14D1144A137843F0020313700AE0084B1A79B7
:402100005AB998781B791649DBB2CA5C22EA0002CA54BDE83840FFF733BA002038BD00BF006000407CC1FF1F88C1FF1F34230000022400007E240000F823000094C1FF1FC7
:4021400072C1FF1F8BC1FF1F8DC1FF1F7AC1FF1F78C1FF1F8CC1FF1F89C1FF1F02C2FF1F8FC1FF1F034B00201A78120648BF5B78704700BF00600040024B1878C0F380103D
:40218000704700BF8F4500400F4A137803F00303012B0AD0022B0DD113790C2103F07F020A4B01FB02339B7A00E01379DBB2012B08D800E00023064A1268D35C032B01D1DE
:4021C000FFF7F6BB002070470060004094C1FF1F90C1FF1F014B1868704700BF44C1FF1F0E4B70B51E460E4C0025E41AA410A54204D056F8253098470135F8E700F04AF9E2
:40220000084B094C1E46E41AA4100025A54204D056F8253098470135F8E770BDA0240000A0240000A0240000A824000010B5431E0A44914204D011F8014B03F8014FF8E78A
:4022400010BD03460244934202D003F8011BFAE77047000000260000370000000000000000000140001000140140000800400140000A004C014000020050014020000000D6
:4022800001450040035200400117014001190140034001400241014002420140024301400347014003480140024C0140015101407E021CFE64037C4CEE0AEE0A3380364021
:4022C000CC30A640A780A640A780A640A78008080F40C20CAE40AF80EE50AC08AF40000A030000CFCC000000000000030000000000004C00003C30000000C000000B0B0057
:402300000000000000CCCC000000000000FE0000000000000030300000000000000303000000000000333300000000006930132E003C0101010000003C23000001000000C2
:402340007E240000000000000000000001000000542300000100000055240000020000007623000001000000882300000000000074230000030000000103400003000000A1
:402380008203400003000000010000009023000000000000C423000000000000B8230000000000000000000001000000D02300000100000067240000410000004FC2FF1FEF
:4023C00090C2FF1F410000000EC2FF1F0AC2FF1F240005010900A1000900A1000900150025FF7508954091020900150025FF750895408102C0C000000A033000300030007B
:402400003100040309042C0343007900700072006500730073002000530065006D00690063006F006E0064007500630074006F0072002203500053006F00430033002000F3
:4024400042006F006F0074006C006F0061006400650072000009022900010100800009040000020300000209211101000122240007050103400001070582034000011201CE
:40248000000200000008B4041DB702300102800143000000F8B500BFF8BC08BC9E46704751000000B5030000F8B500BFF8BC08BC9E4670472D000000C8240000C8C0FF1FC7
:4024C00080000000500100000000000054220000582200000000007D00FA0000400000000090D0030000000000000000000000000000000000000000000000000000000001
:4025000000000000902400000000000000000000000000000000000000000000000000000000000000000000000000000000000000000000000000000000000000000000E7
:4025400000000000E4C0FF1F000000000000000000000000000000000000000000000000000000000000000000000000000000000000000000000000000000000000000099
:40258000000000000000000000000000000000000000000000000000000000000000000000000000000000000000000000000000000000000000000000000000000000001B
:4025C00000000000000000000000000000000000000000000000000000000000000000000000000000000000000000000000000000000000000000000000000000000000DB
:40260000000000000000000000000000000000000000000000000000000000000000000000000000000000000000000000000000000000000000000000000000000000009A
:40264000000000000000000000000000000000000000000000000000000000000000000000000000000000000000000000000000000000000000000000000000000000005A
:020000040001F9
:40FFC00000000000000000000000000000000000000000000100010000000000000000000000000000000000000000000000000000000000000000000000000000000000FF
:0200000480007A
:4000000000000000000000000000000000000000000000000000000000000000000000000000000000000000000000000000000000000000000000000000000000000000C0
:400040000000000000000000000000000000000000000000000000000000000000000000000000000000000000000000000000000000000000000000000000000000000080
:400080000000000000000000000000000000000000000000000000000000000000000000000000000000000000000000000000000000000000000000000000000000000040
:4000C0000000000000000000000000000000000000000000000000000000000000000000000000000000000000000000000000000000000000000000000000000000000000
:0200000490006A
:0400000080804205B5
:0200000490105A
:04000000BC90ACAF55
:0200000490303A
:02000000FE02FE
:0200000490402A
:4000000000000000000000000000000000000000000000000000000000000000000000000000000000000000000000000000000000000000000000000000000000000000C0
:400040000000000000000000000000000000000000000000000000000000000000000000000000000000000000000000000000000000000000000000000000000000000080
:0200000490501A
:0C00000000012E13306900012E212E6B30
:00000001FF