:400000000040002011000000950300009503000008B5054B1A6803F53F5302331A6000F099FA00F0B9F900BFFA46004010B5054C237833B9044B13B10448AFF300800123B1
:40004000237010BDE8C0FF1F000000008C210000084B10B51BB108490848AFF300800848036803B910BD074B002BFBD0BDE81040184700BF00000000ECC0FF1F8C210000F0
:40008000C8C0FF1F0000000070B5454A454D13785B3A43F0010382F85B301378424C03F0FE0313709379642603F0FE03937112F8193C03F0FE0302F8193C12F81D3C03F0E2
:4000C000FE0302F81D3C537803F0FE03537012F81B3C03F0FE0302F81B3C12F81F3C03F0FE0302F81F3CD37D03F0FE03D3751532137803F0FE03137092F8303003F0FE0323
:4001000082F8303012F81E3C03F0FE0302F81E3C12F8203C03F0FE0302F8203C12F8223C03F0FE0302F8223C12F8243C03F0FE0302F8243C92F8483003F0FE0382F8483035
:4001400012F8033C03F0FE0302F8033C2B7843F001032B70237843F00103237000F082FE20B9642000F04EFD013EF7D100F07AFE50B92B78402203F0FE032B70237803F08D
:40018000FE032370094B1A7000F004FC2B7803F0FE032B70237803F0FE032370F6E700BF7B5000406250004063500040FA460040F8B572B6644B61221A700622A3F5A06329
:4001C0001A705222A3F580731A70604B604A1B78604EDBB2137040F618025F4B19251A8041F25122002423F8022C33784FF4F07003F0010343EA440400F03EFE013D04F049
:4002000003041CD0032CF0D1544B4FF480721A8007221A70524A002448211470917002221C705C7103F8032C012283F8FC274D4A4D4D1378062643F00403137000E0FEE73A
:4002400006FB045300219A881868013401F091FF062CF5D100221146444C04F1300554F8210005EB420320F0FF06C0B2024405EB4200013303300233984206D013F8037C0B
:4002800013F802EC07F806E0F5E701310C29E6D1374A137843F002031370137C43F002031374344B344A1C461868596803C254F80A0F1989B83222F8B81C616803C22189D5
:4002C0001C4654F8140F11806168283203C221892A481180194651F81E2F294C02604A681946426051F8262F02614A681946426151F82E2F02624A681946426251F8362F66
:4003000002634A681F49426353F83E2F0A605A684A601D4A137843F0080313701B4B02F5AA521B780C32DBB203F007011B0911705370174B44221A70A3F5A653163B0FCB30
:4003400007C42380F8BD00BF004800400F010049A146004025420040224200400440004006400040E846004090210000B4210000035001401422000000510040125100404C
:40038000B04300406251004022430040CF01004976580040FEE7000080B51148114B0025C0B1A3F1100192C922460439161BB74204D051F8046F42F8046BF7E7114653F85E
:4003C000046C8C1AA64202D041F8045BF9E701381033E5E701F09CFEFFF756FEFEE700BF01000000EC230000104A114B10B41A60104A114C1368114843F400731360002325
:40040000032B98BF54F823204FEA830188BF0C4A0133302B4250F3D10A4B1A780A4B1A700A4B064A10BC1A60FFF7C2BE0004FA050CED00E014ED00E00000000000C0FF1FA7
:4004400095030000BC760040C0C0FF1F08ED00E000470023014422B1013A885C0344DBB2F9E718467047F0B50346C1B06A4623F0FF040E46651E04F1FF07C0F30740C3F3EE
:400480000721141B15F801EFBD4204F805E0F9D1DBB2D65400F066FB00F0BCFB41B0F0BD0138092842D8DFE800F0050B11171D232F29353B0902C1F5FF3101F5E0713BE023
:4004C0000902C1F5FF3101F2C11138E00902C1F5FF3101F2C5112AE00902C1F5FF3101F2C9112CE00902C1F5FF3101F5E87123E00902C1F5FF3101F2D1111DE00902C1F5D9
:40050000FF3101F5EB7112E00902C1F5FF3101F5E9710CE00902C1F5FF3101F5EA7106E00902C1F5FF3101F5EC7108E000210B78487843EA002070470878C0B270470B7832
:400540004A788878000440EA02201843CB7840EA0360704710B50B4A137803F0C003802B0ED10024147021460220FFF799FF38B121460220FFF794FFBDE81040FFF768BFD6
:4005800010BD00BFFA460040F8B5014605460320FFF786FF294604460420FFF781FF294606460620FFF77CFF01283FD0294603200134FFF775FF06EB042600242746013067
:4005C0000002864209D910F8013B5A1ED2B2FD2A1C4498BF0127E4B2F3E729460320FFF75FFF144B01309E424FEA00204FEAD00014BFF6084FF48046B04206D200F1904379
:400600001B7801301C44E4B2F6E729460120FFF747FF6442E4B284420AD14FB12802C0F5FF30012100F2D110FFF71DFF0020F8BD0620F8BDC0FF01002DE98048ADF5617D97
:4006400000F02AFC62B600252F462E46DFF84083FF2301AA4FF496714AA800F04BFC0028F6D1BDF80430062B53D99DF82821012A4FD1BDF82A41E21D9A4247D84AAB234490
:400680009B79172B45D1231D9BB20DF227122BB1D15C013B084480B29BB2F8E74AAB1A1951791379404243EA012380B2834232D00824002101238DF828310A1D00238DF8B2
:4006C0002941ADF806108DF82A118DF82B3192B20DF22714A05C013A034492B29BB2002AF8D15B424BAA9BB253540DF22D121B0A53540DF5977317225A54073196230DF142
:40070000060289B24AA800F0D6FBA1E70324D0E725BB0424CDE79DF829219DF82C91A2F131030A2B00F22B8101A151F823F000BF11070000750700007F090000B90700003D
:400740007B0800007F09000085080000AD080000B9070000CB08000059090000002CD8D12046FFF711FFB0FA80F040098DF82C0129469FE7002DCCD0012CCAD1B9F1010FA1
:40078000C7D8804B1B681B68C3F30742914502D1C3F3072303E08CBF00234FF480738DF82C311B0A8DF82D310024FF238DF82E318DF82F4104217DE7342A10D1002DA8D044
:4007C000032CA6D1A9F140033F2B8CBF4FF4907610263246002195A801F0CBFC03E0002D97D0022C95D995AB033C981922460DF22F1101F0B3FCA9F1400334443F2BA6B213
:4008000003D800F0B7F9102301E04FF490739E4240F0AC80B9F13F0FBDF82D411ED8594B04EB09221B6892B21968C1F30F2311F0FF0F1CBF01339BB29A42C0F09B806FB970
:4008400039464FF4907202A801F093FC4FF4907302AAFF21012000F01FF901272146334695AA484600F018F900280CBF00240A24012500F0CFF900267FE0002D3FF449AF79
:400880000026E5E6002D3FF444AF04EB0609B9F5967F3FF73BAF95AB22464BA99819002401F05CFC1FFA89F6214603E7002C7FF430AF354A02AB92E803004BAA83E80300E6
:4008C00082E8030001250821F4E6002D3FF421AF032C7FF41EAFA9F140033F2BBDF82DB107D810224FEA0B112848FFF7B2FD04462CE04FEA092A0AEB0B014FF4807209026B
:400900000020FFF7A6FDB9F13F0F04461ED80AF1107ADA444FEA4A1A002313F80A0001330444202BE4B2F8D1B9F1010F0ED1BBF1FF0F0BD100210520FFF7B2FD201AC4B25E
:4009400000210620FFF7ACFD201AC4B264428DF82C4101210024ADE60020FFF715FE10B9802388F8003000F02FF9D2E601250026032402E0012500260A2431469AE605246C
:4009800097E600BFCCC0FF1F5C22000000800040FA46004070B50020FFF7F6FD002814BF0625002500F02EF810B1002000F00AF9124E0021336808461C682246FFF749FD9E
:4009C00073681B78181A00F0FF00834200D114B9002000F0F7F80A4B1A7802F0C002402A1A4600D01DB100231370FFF725FE80221A70BDE8704000F0E7B800BFCCC0FF1FCB
:400A0000FA46004070B500F03FF900F0DDF908B104243AE000F012FA0728044610D11C4D2A781B4B900703D4012000F0EBF8F7E71A78910704D51B789B0814BF07240024C6
:400A400000F0E2F90CBB00F01FF900F0BDF90028DED1012000F09EF907280AD10C4D02210C4800F023F90228094E05D02B789B07F5D54FF0FF3406E033789A0703D40120D0
:400A800000F0C0F8F8E700F0BFF9204670BD00BF2247004010C1FF1F41282DE9F04105460E46174698460AD8C41E3C2C8CBF002401243F2804D8B1F5807F30D806E00124D8
:400AC000812E28BF0124B8F1100F28D13FB334BB00F07AF928BB43463A463146284600F003F9072834D1DFF8748098F800201B4B12F0020F1F4603D1012000F083F8F4E7B1
:400B00001A78900706D51B789B080CD002E01A78920719D44FF0FF3400F076F91AE0012418E0042416E00E4A314653782846127800F010F907280BD13A78084B9107E6D4B2
:400B4000012000F05FF8F7E71B789B08E4D0E1E70446E1E72046BDE8F08100BF2247004010C1FF1F3F288CBF10234FF48073FFF793BF000008B500F087F90F4A137843F0F1
:400B800008031370137C43F0080313740B4BC8221A700B4A137843F010031370137C43F01003137402F5557213789B06FCD5BDE8084000F06DB900BFA0430040014700405C
:400BC000AC43004001BE7047024A137843F0010313707047F646004038B50446084DB4F5004F05D9286800F047F9A4F50044F6E7034B58686043BDE8384000F03DB900BF3D
:400C0000D4C0FF1F024B1B7A584300F035B900BFD4C0FF1F08B500F037F900BF00BF00BF00BF00BF00BF00BF00BF00BF00BF00BF00BF00BF00BF00BF00BF064A13889BB231
:400C400043F0040313801388BFF36F8FBDE8084000F01EB900480040054A00F01F00126800F1100352F8230042F82310704700BF08ED00E000F01F0000F16040490100F540
:400C80006440C9B20170704708B500F0FDF8064A137843F008031370137C43F008031374BDE8084000F0F4B8A04300402DE9F0410E464B1E0A4FDFF82C80451EC418A542A9
:400CC0000BD03B78DB0703D40120FFF79BFFF8E798F8003005F8013FF1E73046BDE8F081224700402047004070B5184D2C78A60727D5174CB6262670D52626700226267071
:400D00002D78AD071FD416462070B51AADB2AB4203D916F8015B2570F7E7B3F5807F01D0072070BD3F28FBD800F5103001EB0021490100235A5C0133D2B2202B2270F9D1DD
:400D4000EEE7042070BD092070BD00BF224700402047004070B50D4D2C78A60712D50C4CB6262670D8262670052626702D78AD070AD42070080AC9B2207021702270237078
:400D8000072070BD042070BD092070BD22470040204700400A4A137899070CD5094BB6211970E12119700E2119701278920704D4187007207047042070470920704700BFB6
:400DC000224700402047004038B500F05DF80C4A147874B901250B4915700B682B400AD00B6823F001030B6000BF00BF00BF556002E0042400E01C4600F04AF8204638BDEB
:400E000004C1FF1F0400084010B500F03DF8094B00215A681970012A08D1074C226842F00102226000BF00BF00BF5960BDE8104000F02EB804C1FF1F04000840074B1B786C
:400E40009B0708D5064BB6221A70E0221A700D221A70072070470420704700BF2247004020470040024B187800F00100704700BF01510040000000000230800803D000BF11
:400E800001380046FCD17047EFF3108072B6704780F31088704700BF08B562B60221002000F04AF9014B01221A7008BD0CC1FF1F012000F0F1B970B503EB83030E46154666
:400EC0000146402202205C0000F0A4F9022000F083F930B92CB10120013CFFF77DFEA4B2F4E7022000F078F910B12E80002070BD102070BD2DE9F84303EB83035C00224BC0
:400F000017461A78804689461E46A2B1254600F051F930B92DB10120013DFFF75DFEADB2F5E700F047F9A0B100F04AF9FFF7C0FF002333700DE000F043F950B100F03AF9B3
:400F400038B1FFF7B5FF04E054B1FFF745FE013CA4B2012000F040F901284FF00100F3D100F03AF901280AD14A46402A28BF4022414600F0A7F938800020BDE8F883002316
:400F80003B801020BDE8F8830CC1FF1FF8B5FFF77BFF384A01251378022743F001031370137C354C43F001031374344B02F5E3521D700B3203F8947C1378064603F07F036E
:400FC00013700020FFF71EFE23782D4A03F0F90323701378284603F0DF03137023782B432370FFF70FFE2820FFF70CFE254B38461A7802F07F021A701A7802F0BF021A7024
:4010000023783B432370FFF7FDFD2378304643F0040323701C4B00241C705C70FFF738FF1A491720FFF718FE07211720FFF722FE17491520FFF710FE07211520FFF71AFE07
:4010400014491820FFF708FE07211820FFF712FE11492046FFF700FE20460721FFF70AFE0E492846FFF7F8FD2846BDE8F8400721FFF700BEA5430040944300409D600040E6
:4010800012600040F8510040846000408B17000089170000DD1500002117000055170000184B012210B51A70174B4FF400041C604FF080741C601A6002221A60134B0024B6
:4010C0001C70134B01B103221A70124B124A187000231370114A01201370114A1370114A1370114A1370114A1370114B03221A70802203F8202CFFF7BFFE0E4B04221A7097
:4011000010BD00BFA4C1FF1F00E100E02AC1FF1F0960004024C1FF1F29C1FF1F25C1FF1F28C1FF1F14C1FF1F27C1FF1F9DC1FF1F286000401260004070B5074C05462378CA
:401140000E461BB9FFF722FF0123237031462846BDE87040FFF7A4BF0DC1FF1F0C4B01221A700C4A002313700B4A13700B4A13700B4A13700B4A13700B4A13700B4A1370EA
:401180000B4B03221A70802203F8202C704700BFA4C1FF1F2AC1FF1F29C1FF1F25C1FF1F28C1FF1F14C1FF1F27C1FF1F9DC1FF1F28600040014B1878704700BF29C1FF1F95
:4011C000044B1A7802F0FF001AB118780022C0B21A70704728C1FF1F024A0C2303FB00204078704730C1FF1F0138C0B207280CD8074B0001C0B2C25C0133C35C02F00F00DA
:4012000043EA0020023880B270470020704700BF0C600040431EDBB2072BF0B532D81A4C0C2606FB0046F5881B01ADB2C5F50075AA424FF00C0505FB004588BFF288ED7880
:4012400084BFC2F5007292B2104EDBB245EA12250F4F9D55D5B201361F449D5549B90C2202FB00400022427042790A49D2B25A54F0BD0E46751AADB2AA42F0D916F8015B7B
:401280003D70F7E7F0BD00BF30C1FF1F0C600040886000400E600040431EDBB2072B0BD8064A0C2101FB00200022427042791B010349DBB2D2B25A54704700BF30C1FF1FCF
:4012C0000E600040431EDBB2072B70B50546144617D8C1B11B010D4EDBB21E44FFF784FFA04228BF20460A4684B2531A9BB29C4203D9337802F8013BF7E72846FFF7CCFFFF
:4013000002E0002400E00C46204670BD8860004030B51A491A4A1B4D10780B8803449BB20B801948194B1C88C1B2A4B27CB1A8420CD059680978C9B200F8011B5968013183
:4013400059601988013989B21980ECE7082113780F4C082B0F4800D041B10F4D2B7883F080032B700F232370022301E00223237003700A4B1170197030BD00BFA0C1FF1FC7
:401380009DC1FF1F086000400060004018C1FF1F15C1FF1F2AC1FF1F26C1FF1F9EC1FF1F074B02221A70074B80221A70064B0F221A70064A00231370054A012013707047C9
:4013C0002AC1FF1F26C1FF1F15C1FF1F9DC1FF1F9EC1FF1F10B5154B15491B780A8803F00F03023BDBB21A4492B20A801148124A118889B279B173B1546810F8011B013B5C
:40140000C9B221705168DBB2013151601188013989B21180ECE7094A1370094A137883F080031370074B0B221A7010BD29600040A0C1FF1F0060004018C1FF1F9EC1FF1FA6
:4014400026C1FF1F15C1FF1F064A06231370064A01201370054B80221A70054B00221A70704700BF2AC1FF1F15C1FF1F26C1FF1F9EC1FF1F054B9A683AB19A68044910700A
:401480009A680988518000229A60704718C1FF1FA0C1FF1F08B5124B1A78D2B21A701B78DBB21A0602D50F4A137008BD0220FFF7E1FF0D4B1B7803F06003202B05D0402B49
:4014C00006D043B900F0AAFC04E000F0F9FD01E000F0EAFD10B9034B03221A7008BD00BF2860004015C1FF1F0060004008B5084A084B0120197813880B449BB21380064B2D
:4015000000221A70FFF7B6FF044B03221A7008BDA0C1FF1F9DC1FF1F2AC1FF1F15C1FF1F08B50C4B1B78DBB2042B07D0062B09D0022B0DD1BDE80840FFF7D8BFBDE80840E3
:40154000FFF748BF0320FFF795FF034B03221A7008BD00BF2AC1FF1F15C1FF1F08B5054B002201201A70FFF785FF034B03221A7008BD00BF2AC1FF1F15C1FF1F08B50A4B5F
:401580001A7832B11A78094942F080020A7000221A70074B002201201A70FFF76BFF054B03221A7008BD00BF14C1FF1F086000402AC1FF1F15C1FF1F074B1B78DBB2042BBD
:4015C00005D0062B05D0022B05D1FFF7A1BEFFF7C5BFFFF7D3BF70472AC1FF1F38B51D4C2378DBB2DD0634D518060AD503F00F03012B2ED1FFF74EFF174B1B78190609D52A
:4016000038BD5A0602D5FFF7D7FF03E09D0620D5FFF786FF23781B061BD4104B1A78104B1B7813430F4A13701278934211D10A4A0849154613782078DBB2000605D41378A9
:40164000DBB20B700B7803F00F0328788342F1D138BD38BD2860004015C1FF1F26C1FF1F9EC1FF1F29600040054A00231380054A916819B191680B7092685380704700BFF4
:40168000A0C1FF1F18C1FF1F0F4808B503889BB213B9FFF785FE14E00C4B02221A700C4B00221A70FFF7E0FF0A4B1A78013B1B7843EA0223028892B2934238BF0380FFF797
:4016C00027FE012008BD00BF18C1FF1F2AC1FF1F26C1FF1F0760004008B50C4B04221A700B4B80221A70FFF7BFFF0A4B0A491A78013B1B78012043EA02230A8892B2934253
:4017000038BF0B80054B0B221A7008BD2AC1FF1F26C1FF1F0760004018C1FF1F15C1FF1F094B1B78094B1A7B02F00302012A1EBFDA7B82F08002DA7301225A73044A13788D
:4017400003F0FE03137070470E60004030C1FF1F0B600040094B1B78094B1A7E02F00302012A1EBFDA7E82F08002DA7601225A76044A137803F0FD03137070471E600040AE
:4017800030C1FF1F0B6000407047FFF7E7BC000008B50B4B18780138C0B200F051F9094B09491B78DBB200EBC3004269CB5C02EBC3035B68054A596A0B781380516008BD3D
:4017C00029C1FF1F0460004016C1FF1F18C1FF1F08B50D4B18780138C0B200F031F90B4B0B491B78DBB200EBC3004269CB5C02EBC3035B68DB69597813F8022B42EA01228B
:4018000004490A804B6008BD29C1FF1F0460004016C1FF1F18C1FF1F10B5184C00232380174B18780138C0B200F00AF9154B164A1B781278DBB2FAB9144A1278D1B25A1E4A
:40184000022A19D8426903F1005302EBC10251680F4A013B127801EBC30011F83330D2B2934209D30C2353434168CA185068CB5A606023809368A36010BD00BF18C1FF1F70
:4018800029C1FF1F036000400460004016C1FF1F0260004010B53D4B3D4A1B781178DBB2090634D501321278013A052A6BD8DFE802F01018276A6A03364B1A78212A02D133
:4018C000FFF766FF07E01B78222B5CD1FFF780FF01E0FFF7A1FF304B1B889BB2002B52D00AE0002B4FD12D4B1B78002B4BD12A4B01221A802A4A5A60BDE81040FFF7C4BEA1
:40190000002B40D1244B01221A80264AF3E71278120638D4244A1278D2B20A2A0DD00B2A24D0092A2FD1FFF777FF1B4B1B889BB24BB3BDE81040FFF7CFBE23BB174B1B7853
:4019400003F0FF01FBB9134B154A1B78DBB21370164B14781878844201D219700FE0197801290CD91278D2B21A7008E05BB90B4B1A78012A07D81B780A4ADBB21370BDE810
:401980001040FFF761BD002010BD00BF04600040006000400360004018C1FF1F02600040A2C1FF1FA4C1FF1F01600040A3C1FF1FF0B51F4D1F4B2F461F4E01210C204FF086
:4019C000800E4FF0080C00FB015283F87200547934B1127912064CBF187083F800C001E083F800E000FB017214891033C4F3072403F8124C14890131E4B203F8114CD488CA
:401A0000E4B283F86840D488C4F3072483F86940D488E4B283F86640D288C2F3072283F86720B342CFD1054BFF221A70F0BD00BF30C1FF1F0E6000408E6000400A600040AD
:401A4000064B074A1B7802EBC30253681A7A824286BF03EBC003D8680020704724C1FF1F642200002DE9F047434B1A78002A00F081801878414F0138C0B2FFF7E1FFC36882
:401A8000057ADFF80881DFF808913D4803EBC5050C264FF0010E4FF0000CAB426AD01A78BC5C18F802108C4262D0B95C5C788C425ED199F800108A425AD193F802A0DC78DD
:401AC0000AF07F014A1E12011AF0800FD2B204F0030406FB010A06D0012C8AF801E00CBF07240D2405E0012C8AF801C00CBF052409248AF80540234C04F802E006FB01F4C0
:401B0000B3F804A00119A1F808A093F802A081F804A093F803A000F804A081F803C0B1F808A0194CCAF3072A04F802A0B1F808A001345FFA8AFA04F802A0B1F806A079346C
:401B40005FFA8AFA04F802A0B1F806A00134CAF3072A04F802A0B1F806A0033C5FFA8AFA04F802A001341444CA88C2F307222270083392E7BDE8F08729C1FF1F16C1FF1FB5
:401B800030C1FF1F0E6000400C6000409CC1FF1F0460004008B5064B18780138C0B2FFF74FFF20B143681B7900EBC300406908BD29C1FF1F00212DE9F84F0B464A4E0C2742
:401BC00007FB01F501317219092973554FF000049370454D5370D370537113819372EFD118B1424B1C70424B1C70424B1A78002A77D0187801240138C0B2FFF721FFA14653
:401C00004368DFF8E8C0DB794FF00C0E13F0400F394B4FF000081A7814BF42F0010202F0FE021A70027AD2000EFB0451C36803EB020A53452CD09F7807F07F06A64225D1C4
:401C40000E89B3F804B0B6B25E4538BFA1F808B01E7893F801B01CF80660B34516D1DE783F0606F0030606D5012E81F801900CBF07260D2605E0012E81F801800CBF052613
:401C800009264E719E780E71DE780E700833D0E70134092CC8D1C1680A328B1C0A440C200833934209D013F8081C13F80A4C01F07F0100FB01518C72F2E7FFF76BFF0F4B8A
:401CC0000122186000230C2000FB0251CB80098901320B44092A9BB2F6D1BDE8F84FFFF767BEBDE8F88F00BF30C1FF1F16C1FF1F9CC1FF1F29C1FF1F27C1FF1F2CC1FF1F7C
:401D0000114B1B7803F07F02511EC9B2072919D80E4B0C2000FB02339A78090142F001029A700022DA705A78C9B242F002025A701B7913F0800F064B14BF8D228922CA54AA
:401D4000FFF782BB002070470460004030C1FF1F0E60004010B41A4B1A7802F07F02531EDBB2072B28D817490C2000FB02129178154C01F0FE0191701B010021D170DBB299
:401D8000195D01F07F011955517801F0FD0151701179527811F0800F0C4905D0012A01D1585406E00D2203E0012A0CBF082209225A5410BCFFF748BB002010BC704700BF86
:401DC0000460004030C1FF1F0C6000400E60004008B50D4B19780D4BC9B218780138C0B2FFF72EFE43681B798B420BD951B9084A084913780120DBB20B70074B1B78DBB23D
:401E0000137008BD002008BD0460004029C1FF1F16C1FF1F9CC1FF1F0260004038B58D4900230B808C4B1A7812F0800F8B4A127800F08A800A2A00F20A81DFE812F0580021
:401E4000080108010801080108010B0008017A0008017E00824B1A78012A09D1814B1A78814B03EBC2035B685B684B60122311E01A78022A13D17D4B1878FFF7E1FD002892
:401E800000F0E58043684B604B68DA784B689B7843EA02230B80BDE83840FFF7F5BB1B78032B20D1724B714C00222078D5B285420BD36E4A12787AB16C4A6E4C1078247CF5
:401EC0006D4A844208BF134606E0187801320028EFD018780344E8E71A78002A00F0B7801A780A8019E0BDE8384000F0E9B81B7813F0030313D0022B40F0A9800B805F4B2F
:401F00000C201B7803F07F025D4B00FB02339A785C4BD2B21A7000225A704B60BBE702220A80594A1078574AC0B2107053704A60B1E701230B80554BEFE701230B804F4BB7
:401F4000534A1B781344E8E7013A0A2A7FD8DFE802F0367E527E067E7E7E0B7E2200434B4C4A1B78DBB260E0404B1B7803F0FF0153B9464B1A78914265D01970464B0120D6
:401F80001870FFF717FE5EE0481EC0B2FFF758FD0028EED15BE0FFF71BFF002857D0374B01221C783D4BE4B21C703B4B1A70FFF759FD374B3A4A1B5DDBB2135543E01B7844
:401FC00003F00303012B32D00CD3022B3FD103F1804303F5C0431B78002B38D1BDE83840FFF7B8BE214B1B78012B30D1264A137803F0FD0319E01B7803F00303012B16D0EB
:402000000BD3022B23D103F1804303F5C0431B78EBB9BDE83840FFF773BE144B1B78012B15D1194A137843F0020313700BE0134B1A7862B90D4A1B4910781B78DBB2CA5C48
:4020400022EA0002CA54BDE83840FFF7FDB9002038BD00BF18C1FF1F00600040016000400360004024C1FF1F64220000026000402A230000A6230000202300000460004094
:4020800030C1FF1F0EC1FF1F27C1FF1F29C1FF1F16C1FF1F14C1FF1F28C1FF1F25C1FF1F9CC1FF1F2BC1FF1F034B00201B781B0644BF024B1B7870470060004001600040A1
:4020C0000F4B1B7803F00303012B0BD0022B0DD10C4B0C211B7803F07F020B4B01FB02339B7A01E0074B1B78DBB200E00023074A1268D35C032B01D1FFF7CCBB002070471D
:40210000006000400460004030C1FF1F2CC1FF1F0E4B70B51E460E4C0025E41AA410A54204D056F8253098470135F8E700F044F9084B094C1E46E41AA4100025A54204D011
:4021400056F8253098470135F8E770BDC4230000C4230000C4230000CC23000010B5431E0A44914204D011F8014B03F8014FF8E710BD03460244934202D003F8011BFAE762
:402180007047000000250000DC0000000000000050510040100000000140001000140140000800400140000A004C0140000200500140200001450040035200400117014089
:4021C00001190140034001400241014002420140024301400347014003480140024C0140015101407E0204011C3C7C40EE0AEE0A33803640CC30A640A780A640A780A6408A
:40220000A78008080F40C20CAE40AF80EE50AC08AF40000A010000ABAA00000000000C00002C2000000000000000002828000000C000000B0B000000000000AAAA0000001A
:402240000000003C000000000000004343000000000000A4A4000000000000006930132E001E0101010000006C22000001000000A6230000010000007C2200000100000061
:402280007D230000020000009E22000001000000B0220000000000009C220000030000000103400003000000820340000300000001000000B822000000000000EC22000030
:4022C00000000000E0220000000000000000000001000000F8220000010000008F23000041000000EBC1FF1F2CC2FF1F41000000AAC1FF1FA6C1FF1F240005010900A100D4
:402300000900A1000900150025FF7508954091020900150025FF750895408102C0C000000A033000300030003100040309042C03430079007000720065007300730020001B
:40234000530065006D00690063006F006E0064007500630074006F0072002203500053006F0043003300200042006F006F0074006C006F00610064006500720000090229F2
:4023800000010100800009040000020300000209211101000122240007050103400001070582034000011201000200000008B4041DB7033001028001F8B500BFF8BC08BC9D
:4023C0009E46704751000000E9030000F8B500BFF8BC08BC9E4670472D000000F0230000C8C0FF1F2000000048010000000000000000000084210000882100000000007D6C
:4024000000FA0000400000000090D00300000000000000000000000000000000000000000000000000000000000000000000000000000000000000000000000000000000FF
:40244000000000000000000000000000000000000000000000000000000000000000000000000000000000000000000000000000000000000000000000000000000000005C
:40248000000000000000000000000000000000000000000000000000000000000000000000000000000000000000000000000000000000000000000000000000000000001C
:4024C00000000000000000000000000000000000000000000000000000000000000000000000000000000000000000000000000000000000000000000000000000000000DC
:40250000000000000000000000000000000000000000000000000000000000000000000000000000000000000000000000000000000000000000000000000000000000009B
:020000040001F9
:40FFC00000000000000000000000000000000000000000510100010000000000000000000000000000000000000000000000000000000000000000000000000000000000AE
:0200000480007A
:4000000000000000000000000000000000000000000000000000000000000000000000000000000000000000000000000000000000000000000000000000000000000000C0
:400040000000000000000000000000000000000000000000000000000000000000000000000000000000000000000000000000000000000000000000000000000000000080
:400080000000000000000000000000000000000000000000000000000000000000000000000000000000000000000000000000000000000000000000000000000000000040
:4000C0000000000000000000000000000000000000000000000000000000000000000000000000000000000000000000000000000000000000000000000000000000000000
:0200000490006A
:040000008000400537
:0200000490105A
:04000000BC90ACAF55
:0200000490303A
:020000004B5360
:0200000490402A
:4000000000000000000000000000000000000000000000000000000000000000000000000000000000000000000000000000000000000000000000000000000000000000C0
:400040000000000000000000000000000000000000000000000000000000000000000000000000000000000000000000000000000000000000000000000000000000000080
:0200000490501A
:0C00000000012E13306900012E207BBC93
:00000001FF